:020000040800F2
:10000000F8100020C90100085B210008311F00081A
:100010005921000879040008AB3B000800000000EB
:100020000000000000000000000000000B25000898
:10003000E704000800000000092500080D2500085D
:10004000E3010008E3010008E3010008E301000800
:10005000E3010008E3010008E3010008E3010008F0
:10006000E3010008E3010008E3010008B10400080F
:10007000E3010008E3010008E3010008E3010008D0
:10008000E3010008E3010008E3010008E3010008C0
:10009000353B0008E3010008E3010008E301000824
:1000A000E3010008E3010008E3010008E3010008A0
:1000B000E3010008E3010008E3010008E301000890
:1000C000E3010008E3010008E3010008E301000880
:1000D000E3010008E3010008E3010008E301000870
:1000E000E3010008E3010008E301000800F002F862
:1000F00000F05AF80AA090E8000C82448344AAF168
:100100000107DA4501D100F04FF8AFF2090EBAE865
:100110000F0013F0010F18BFFB1A43F0010318473B
:10012000B0470000D04700000A444FF0000C10F820
:10013000013B13F0070408BF10F8014B1D1108BF65
:1001400010F8015B641E05D010F8016B641E01F805
:10015000016BF9D113F0080F1EBF10F8014BAD1C55
:100160000C1B09D16D1E58BF01F801CBFAD505E073
:1001700014F8016B01F8016B6D1EF9D59142D6D3CD
:10018000704700000023002400250026103A28BFF5
:1001900078C1FBD8520728BF30C148BF0B607047F9
:1001A0001FB51FBD10B510BD00F08AF81146FFF74E
:1001B000F7FF03F04BFD00F0A8F803B4FFF7F2FFE0
:1001C00003BC00F0AFF80000094880470948004729
:1001D000FEE7FEE7FEE7FEE7FEE7FEE7FEE7FEE7F7
:1001E000FEE7FEE704480549054A064B7047000054
:1001F0008D250008ED000008F80A0020F810002006
:10020000F80C0020F80C002010B5203AC0F00B804C
:10021000B1E81850203AA0E81850B1E81850A0E80A
:100220001850BFF4F5AF5FEA027C24BFB1E8185064
:10023000A0E8185044BF18C918C0BDE810405FEAD4
:10024000827C24BF51F8043B40F8043B08BF704750
:10025000D20728BF31F8023B48BF11F8012B28BF55
:1002600020F8023B48BF00F8012B70474FF0000216
:1002700000B5134694469646203922BFA0E80C509C
:10028000A0E80C50B1F12001BFF4F7AF090728BF77
:10029000A0E80C5048BF0CC05DF804EB890028BFF3
:1002A00040F8042B08BF704748BF20F8022B11F01C
:1002B000804F18BF00F8012B704770477047704798
:1002C000754600F02BF8AE4605006946534620F00F
:1002D0000700854618B020B5FFF784FFBDE8204031
:1002E0004FF000064FF000074FF000084FF0000BF2
:1002F00021F00701AC46ACE8C009ACE8C009ACE8A5
:10030000C009ACE8C0098D46704710B50446AFF38C
:1003100000802046BDE81040FFF74FBF00487047FF
:10032000940A002001491820ABBEFEE72600020017
:100330007047000070B5044600688168C943C9076A
:1003400017D1816821F00101816000F069FD054647
:100350000AE000BF00F064FD401B022804D92068B9
:100360008068C043C00706D020688068C043C007CB
:10037000F0D0002070BDA06A40F01000A062E06ADA
:1003800040F00100E062012070BD10B50146406AF6
:10039000826A12F0500F05D0006A026BBDE810406F
:1003A00008461047816A41F40071816201688968DA
:1003B000C1F3424107290CD1017B51B9816A21F473
:1003C00080718162816AC90403D4816A41F00101AC
:1003D000816200F075F910BD10B5406A816A41F084
:1003E00040018162C16A41F00401C16200F093F9E9
:1003F00010BD10B5406A00F08DF910BDF8B50026AB
:100400000446009600688168C943C9072DD08168F9
:1004100041F001018160164816490068B0FBF1F017
:1004200000E0401E00900028FBD100F0F9FC0546DA
:1004300016E000BF00F0F4FC401B022810D9206831
:100440008068C043C0070BD0A06A40F01000A062D3
:10045000E06A40F00100E06284F824600120F8BD09
:1004600020688068C043C007E4D10020F8BD0000C8
:10047000C400002040420F00FEE70020704700202B
:10048000704700000748084AD0F8B81201201070E1
:10049000064A00200B5C1354401C80B24028F9D35C
:1004A000002070478802002034000020A0010020B6
:1004B000014800F09DBA00004402002030B590F8D9
:1004C00040500124AC40C56B6C60046863604368B5
:1004D000102B036803D099600068C26030BD9A6039
:1004E0000068C16030BD704772B6FEE7F8B5002500
:1004F0000446009590F8240001280BD0012084F8D0
:1005000024002046FFF716FF2046FFF777FF06007E
:1005100002D050E00220F8BDA06A20F4885040F0DC
:100520000200A062022001F0CBF925490968B1FB65
:10053000F0F0400000E0401E00900028FBD1206851
:10054000816841F00801816000F06AFC074608E01C
:1005500000F066FCC01B0A2803D9206880680007E9
:1005600015D4206880680007F2D42068816841F0C3
:100570000401816000F054FC074612E000F050FCDA
:10058000C01B0A280DD920688068400709D5A06AD9
:1005900020F0020040F01000A06284F824500120F6
:1005A000F8BD206880684007E8D4A06A20F0020007
:1005B00040F00100A06284F824503046F8BD0000ED
:1005C000C4000020F8B50024009490F824202546AB
:1005D000012A12D0012280F824204A681F23072A0A
:1005E0000DD20668776B521E02EB820293409F4346
:1005F0000B6893401F43776319E00220F8BD06683B
:100600000D2A0AD2376BD21F02EB820293409F431E
:100610000B6893401F43376309E0F76A0D3A02EB1A
:10062000820293409F430B6893401F43F7620A681E
:10063000072306680A2A0AD3F7680A3A02EB42023D
:1006400093409F438B6893401F43F76008E03769EE
:1006500002EB420293409F438B6893401F433761F4
:100660000A68102A01D0112A20D1124B02689A423E
:1006700017D193681B0219D4936843F40003936065
:100680000968102912D10C490C4A0968B1FBF2F132
:1006900001EB8101490000E0491E00910029FBD1D6
:1006A00004E0816A41F020018162012480F8245035
:1006B0002046F8BD00240140C400002040420F0045
:1006C0002DE9F0470F4D104FDFF84080DFF84090E4
:1006D000002405F1140600BF35F8140003F057FE9E
:1006E00000223B4603F0CCFC42464B4603F09EFE04
:1006F00003F088FC46F82400641C64B2022CEBDB97
:10070000BDE8F0871002002000FEAF40FED478E97B
:1007100026310A40704770472DE9F0414FF000073D
:1007200004003D467ED0A06A002628B9E66284F81F
:100730002460204600F07EF82046FFF7FBFDA16A0A
:10074000C90600D420B1A06A40F01000A06269E0A0
:10075000A16A21F4885141F00201A1626268E16955
:10076000237B0A4347EA43010A43A1684FF4807799
:10077000B94209D0012907D05FF0000194F814C0F4
:10078000BCF1010F02D00AE03946F7E7F3B1A36AE2
:1007900043F02003A362E36A43F00103E3622368AA
:1007A000D3F804C02CF4694C4CEA010CC3F804C023
:1007B00021688B68DFF870C003EA0C0313438B6079
:1007C000A168B9420BD0012909D00CE0DFF85CC068
:1007D000A3690CEB43330B4343F40061DFE7218A49
:1007E0000D05A5F580152168CB6A23F470032B4312
:1007F000CB62216889680E4B1940914208D1E662AC
:10080000A16A21F0020141F00101A162BDE8F0817D
:10081000A06A20F0020040F01000A062E06A40F000
:100820000100E0620120F1E7FDF7E1FF00E0FFFFDA
:10083000FE0E1FFF70B586B0002506460095019597
:10084000029503950068214988423CD12049886976
:1008500040F400708861886900F400700490886931
:1008600040F010008861886900F0100004908869E9
:1008700040F0040088618869032400F004000490BB
:100880000420CDE900046946124800F0D3F9F620AF
:10089000CDE900046946104800F0CCF9104C0F482F
:1008A000C4E900058020C4E90250400020618000B6
:1008B000C4E905052046E56100F044F908B1FFF7F9
:1008C00013FE3462666206B070BD00000024014071
:1008D00000100240001001400008014008000240E2
:1008E000440200202DE9F047894604463B49006850
:1008F0003B4F0E1D9046884201D0B84207D1306868
:1009000010F4702F03D001252846BDE8F08794F835
:10091000240001280CD0012084F824002046FFF791
:100920006DFD05004FF0000004D084F82400EBE7D3
:100930000220EAE7A16A40F60162914341F4807126
:10094000A1622168B94218D1326812F4702F14D014
:10095000A16A41F48011A1623168490505D5A16AF7
:1009600021F4005141F48051A162A16AC9040AD561
:10097000E16A21F00601E16206E0A26A22F4801237
:10098000A2624968E9E7E06284F82400216A154818
:100990008862216A1448C862216A14480863216881
:1009A0006FF0020008602068816841F48071816006
:1009B000216843464A464C31206A00F0F1F820682D
:1009C0008168C1F342410729816803D041F4801155
:1009D000816099E741F4A001FAE70000002401409A
:1009E000002801408B030008F3030008D903000826
:1009F0002DE9F05FC16B0C6801680B68D0F840C04E
:100A0000042202FA0CF2494DDFF824A1494E4A4F64
:100A1000DFF828B1DFF828E122422CD05A072AD586
:100A20000A68920603D40A6822F004020A60016888
:100A3000A94201D1042219E0514501D1402215E01B
:100A4000B14202D14FF4806210E0B94202D14FF4BA
:100A500080420BE0594502D14FF4802206E07145F7
:100A600002D14FF4800201E04FF080622F49083933
:100A70004A60C16A3BE04FF0020808FA0CF818EA35
:100A8000040F4FF000094FF0010235D05FEA837880
:100A900032D50B689B0605D40B6823F00A030B6064
:100AA00080F821200168A94201D1022219E05145B4
:100AB00001D1202215E0B14202D14FF4007210E0C2
:100AC000B94202D14FF400520BE0594502D14FF424
:100AD000003206E0714502D14FF4001201E04FF000
:100AE0000072124908394A6080F82090816A002912
:100AF0001AD0BDE8F05F0847082505FA0CF5254235
:100B000012D01B0710D50B6823F00E030B6090F872
:100B10004010C36B02FA01F15960826380F8212012
:100B200080F82090016BE2E7BDE8F09F08000240EA
:100B30001C000240300002404400024058000240C5
:100B40006C00024030B528B308C813491422194478
:100B5000B1FBF2F18900C163104981630221417741
:100B60001A6843F6F0718A43D0E900142143D0E9B2
:100B700002452C432143046921434469214384698C
:100B8000214311431960002141630122427701771B
:100B9000084630BD012030BDF8FFFDBF0000024017
:100BA00070B5044690F82000002501280CD00120E3
:100BB00084F8200094F821600020012E06D084F8EB
:100BC00020000225284670BD022070BD022684F850
:100BD0002160A0632068066826F0010606602046B2
:100BE000FFF76CFCE06A00282068016802D041F041
:100BF0000E0106E021F0040101602068016841F067
:100C00000A0101602068016841F001010160D9E733
:100C100070B5044600F004F90546601C02D0044893
:100C20000078044400F0FCF8401BA042FAD370BDE9
:100C3000B80000202DE9F84FDFF8B8910024A9F1A1
:100C4000040B23460F2709F1040AABF1040EC9E097
:100C50000125A5402A40AA427DD1674ED1F804C0A3
:100C6000ACEB0608B44532D014DCBCF1030F3AD02B
:100C700009DCBCF1000F2AD0BCF1010F1CD0BCF183
:100C8000020F31D11DE0BCF1110F17D0BCF1120FD2
:100C90002AD119E0B8F5881F19D006DCB8F5803FD5
:100CA00015D0B8F5801F1FD111E0B8F5001F0ED088
:100CB000B8F5041F18D10AE0CB6815E0CB681B1DFE
:100CC00012E0CB6808330FE0CB680C330CE08B6884
:100CD0002BB1012B4FF0080303D0456104E004233E
:100CE00002E0056100E00023FF2A01D8064601E08A
:100CF00000F104064FEA840501D9A5F12005D6F8D4
:100D0000008007FA05FC28EA0C0803FA05F548EA12
:100D10000508C6F800804D68ED0062D5374DAE6914
:100D200046F00106AE61AD6924F0030605F0010549
:100D30000095334D06EB050CDCF80850A607360F7E
:100D400007FA06F825EA0805DFF8B880404503D120
:100D50004FF0000817E044E0DFF8AC80404502D1D6
:100D60004FF001080FE0DFF8A480404502D14FF0BA
:100D7000020808E0DFF89880404502D14FF00308F0
:100D800001E04FF0040808FA06F848EA0508CCF834
:100D900008804D68D9F80060ED024D4601D5164334
:100DA00000E096432E604D68DAF80060AD025546CB
:100DB00001D5164300E096432E604D68DBF80060D5
:100DC000AD035D4601D5164300E096432E604D68A5
:100DD000DEF80060ED03754601D5164300E096434A
:100DE0002E60641C0D682A46E5407FF431AFBDE8F3
:100DF000F88F0000080401400000111000100240AC
:100E00000000014000080140000C014000100140BA
:100E1000001401400AB1016170470904FBE70000BA
:100E20000148806870470000B800002002488168CF
:100E30000278114481607047B8000020074810B55F
:100E4000016841F010010160032000F075F80F20E7
:100E500000F006F800F024F8002010BD0020024049
:100E600070B50D4D04464FF47A712878B1FBF0F05F
:100E70000A490968B1FBF0F001F046F848B9102CB6
:100E800007D200222146501E00F036F800206C6088
:100E900070BD012070BD0000B8000020C40000201B
:100EA0000C4808B5816941F001018161816901F057
:100EB00001010091C16941F08051C161C06900F038
:100EC000805000900448416821F0E06141F00071D9
:100ED000416008BD0010024000000140002809DB0D
:100EE00000F01F02012191404009800000F1E02044
:100EF000C0F8001170470000F0B40E4B1B680C46A0
:100F0000C3F30223C3F10705042D00D90425191DDD
:100F1000072901D2002300E0DB1E012606FA05F1B5
:100F2000491E214099409E40761E16403143F0BC38
:100F300002F03CBE0CED00E0064900F00702086834
:100F40004FF6FF03184040EA0220034A10430860AE
:100F5000704700000CED00E00000FA0510B50C062B
:100F600007D501F0070101EB810100EBC10028303A
:100F700005E001EB810100EBC10000F5B47099B20E
:100F800032B1012202730181190C4181002010BD90
:100F900000220273C180F9E7704701EB810200EB88
:100FA000C202D0F8EC02D26B01F09FBD01EB8102CE
:100FB00000EBC202D0F8EC02D2F87C2101F0F8BDBF
:100FC00070B504460B0601F0070000EB800104EB4E
:100FD000C1014FF001024FF0000503D581F829202F
:100FE000283103E081F8695101F5B471087094F873
:100FF000A802012808D084F8A822206802F02EFA5E
:1010000084F8A852002070BD022070BD70B504465F
:1010100001F00F006268904201D9012070BD0B06FB
:1010200001F0070000EB800104EBC1014FF0010269
:101030004FF0000503D581F82920283103E081F81D
:10104000695101F5B4718D70087094F8A8020128F7
:1010500008D084F8A822206802F09DFA84F8A852EB
:10106000002070BD022070BD2DE9F05F04685FEACA
:10107000424C0B788D69B4F850C04FF000064BF627
:101080008F7948F2800A48F68F7B48F2C00E4FF401
:1010900080672AD54FF0020808EBC308C44407EB69
:1010A0004C07E45BC4F30904A54203D32D1B8D61F7
:1010B00001D00BE08E61066836F8235005EA090579
:1010C00085F4005545EA0A0526F82350520609D54D
:1010D0000D78036833F8252002EA0B0242EA0E027B
:1010E00023F8252084B30A8929E04FF0060808EB8D
:1010F000C308C44407EB4C07E45BC4F30904A542EE
:1011000003D32D1B8D6101D00BE08E61066836F88C
:10111000235005EA090585F4005545EA0A0526F835
:101120002350520609D40B78056835F8232002EACB
:101130000B0242EA0E0225F823202CB14A894969A4
:101140000068234602F000FD2046BDE8F09F2DE92F
:10115000F05F054600680C465FEA426C16468B69F4
:101160002278B0F850C048F68F774CF280094FF4DF
:10117000004B4FF6FF7E4FF4806A4FF0000172D5AE
:101180004FF0020808EBC208E0440AEB480C30F8C4
:101190000C00C0F30900834211D91B1AA3610FD0C0
:1011A000730407D52E6836F822303B4043EA090322
:1011B00026F8223094F82420012A47D052E1A16178
:1011C000607810B1012813D01AE02868B0F85030C8
:1011D000184400EB0210B0F80424C2F30902A0F88E
:1011E0000424B0F8042442F40042A0F8042407E0E8
:1011F0002868B0F85030184400EB0210A0F804142E
:101200006278286812B1012A11D018E0B0F85010A5
:101210000844217800EB0110B0F80C14C1F3090167
:10122000A0F80C14B0F80C1441F4004105E0B0F83B
:1012300050201044227800EB0210A0F80C14217802
:101240002846FFF7AAFE700472D40BE162690244DB
:101250006261E2690244E2612369226A9A4203D32D
:101260001846111A04E03EE084F824100AB1104632
:101270002162617811B1012929D031E02968B1F8E2
:1012800050201144227801EB0211B1F80424C2F37A
:101290000902A1F8042401F204413E2807D94209B9
:1012A000C30600D1521E0B884BEA822207E048B1E8
:1012B0004208C30700D0521C0B880EEA8222134357
:1012C0000B800DE00A8842F400420A8008E0296899
:1012D000B1F850201144227801EB0211A1F8040466
:1012E00083B22289BAE04FF0060808EBC208E04456
:1012F0000AEB480C30F80C00C0F30900834211D30C
:101300001B1AA3610FD0730407D42E6836F822305D
:101310003B4043EA090326F8223094F82420012AAE
:1013200051D09FE0A161607818B1012814D01BE072
:101330003FE02868B0F85030184400EB0210B0F8D5
:101340000424C2F30902A0F80424B0F8042442F4EF
:101350000042A0F8042407E02868B0F85030184490
:1013600000EB0210A0F804146278286812B1012A78
:1013700011D018E0B0F850100844217800EB0110AB
:10138000B0F80C14C1F30901A0F80C14B0F80C1457
:1013900041F4004105E0B0F850201044227800EB01
:1013A0000210A0F80C1421782846FFF7F6FD70040F
:1013B00058D42278296831F82200384040EA0900E0
:1013C00021F822004EE0626902446261E26902444F
:1013D000E2612369226A9A4203D31846111A2162F4
:1013E00004E00AB11046216284F82410627829686A
:1013F00012B1012A28D02FE0B1F8502011442278F0
:1014000001EB0211B1F80C24C2F30902A1F80C247B
:1014100001F20C413E2807D94209C30600D1521EF1
:101420000B884BEA822207E048B14208C30700D08C
:10143000521C0B880EEA822213430B800CE00A88B0
:1014400042F400420A8007E0B1F8502011442278AB
:1014500001EB0211A1F80C04628983B2616928686A
:1014600002F090FB2278296831F8220048F6BF7319
:10147000184080F0300048F28003184321F8220021
:101480000020BDE8F09F2DE9F04104460F0601F071
:10149000070000EB800104EBC1014FF001064FF0A3
:1014A000000503D581F82960283103E081F86951EE
:1014B00001F5B471022B08700A61CB7000D10D7177
:1014C00094F8A802012809D084F8A862206801F0E5
:1014D00075FE284684F8A852BDE8F0810220FBE79B
:1014E00010B501F0070404EB840100EBC101C1E970
:1014F0005F230022C1F8842181F8692181F86841C5
:10150000006801F5B47102F09BF8002010BD70B5C1
:1015100004460D4601F007006168884201D90120A8
:1015200070BD29064FF000064FF0010207D500EB11
:10153000800104EBC10181F82920283107E005EB87
:10154000850104EBC10181F8696101F5B4718A700C
:10155000087094F8A802012807D084F8A82220680F
:1015600002F055F8680702D006E0022070BD04F5CD
:101570002C71206802F00DF884F8A862002070BD7C
:1015800010B501F0070404EB840100EBC101C1E9CF
:101590000F23012281F84C208B6400234B6481F8D7
:1015A000292001F8284F006802F04AF8002010BDF9
:1015B0001FB50446006802F0C3FA010403D52046B3
:1015C00000F0CCFD1FBD41050DD5206830F8441F4B
:1015D00021F480610180204600F010F900212046AE
:1015E00000F027F91FBD410405D5206830F8441FDD
:1015F00021F4804174E0810405D5206830F8441F4F
:1016000021F400516CE0C10414D5206830F8401F6B
:1016100021F004010180206830F8401F21F008010A
:101620000180204600F0FDF8206830F8441F21F4C6
:10163000805155E0010540D5D4F8002000206946CE
:1016400032F8203021F81030401CC0B20828F7D3FF
:1016500032F8400F40F001001080206830F8402F31
:1016600022F0010202802068B0F844205205FBD528
:1016700030F8442F22F4806202800020236831F881
:10168000102023F82020401CC0B20828F6D3206880
:1016900030F8401F41F008010180206830F8441FF5
:1016A00021F400610180206830F8401F41F00401FE
:1016B0000180204600F0F2F81FBD810509D52068A1
:1016C00030F8441F21F400710180204600F0ADF88D
:1016D0001FBDC005FCD5206830F8441F21F480717F
:1016E00001801FBD2DE9F04186B0040004D094F8BC
:1016F000A902002520B108E0012006B0BDE8F08174
:1017000084F8A852204600F05BF8032084F8A90270
:10171000206801F037FF04F1100114228846684662
:10172000FEF772FD94E80F0001F096FE0227D0BB91
:101730000021206802F01EFA002001260EE000BF02
:1017400000EB800104EBC10181F8296001F8280F4A
:10175000401CCD700D614D61C0B28D6161688142E8
:10176000EED8002012E000BF00EB800104EBC101C5
:1017700081F8695181F8680181F86B51C1F878519D
:10178000C1F87C51401CC0B2C1F8805161688142EF
:10179000EAD8142241466846FEF736FD94E80F0069
:1017A00001F0E7FE10B184F8A972A5E784F824508F
:1017B00084F8A962206801F0DAFE00209DE70000AD
:1017C00008B500680B49884212D10B48C16941F441
:1017D0000001C161C069002200F4000000901146C0
:1017E0001420FFF789FBBDE808401420FFF776BB03
:1017F00008BD0000005C00400010024070B50446C7
:1018000080680125022801D0FEF76EFE2946D4F833
:10181000EC0201F0AAFAD4F8EC02BDE8704001F045
:1018200066BAD0F8EC0201F08ABAD0F8EC0201F006
:1018300090BA10B5044690F8A80201280BD00120F8
:1018400084F8A80284F82410206802F095F900209A
:1018500084F8A80210BD022010BDD0F8EC2200F5DB
:101860002C71104601F08DBA10B5044690F8A8020C
:10187000012810D0012084F8A802206802F051F954
:1018800001212046FFF788FB206801F06EFE002052
:1018900084F8A80210BD022010BD000010B5044657
:1018A000D0F8EC0201F0ACFAA069002804D003489B
:1018B000016841F00601016010BD000010ED00E07C
:1018C00010B501460020234C012922D0022939D02D
:1018D00010291DD161682268D20119D51E48C1F3B3
:1018E0008342C903805C0AD561681B4AC1F3404149
:1018F000921E515C194AB2FBF1F1484301E01849CC
:1019000048436168490203D440000321B0FBF1F071
:1019100010BD226AC2F30121012903D1920701D52A
:10192000C80310BD022905D1626A920702D549F6A3
:10193000404010BD0329FCD121688903F9D54FF23D
:10194000244010BD00F01AF96168C1F38131491CCF
:101950004900DBE700100240A848000800127A00A6
:1019600000093D002DE9F84305460078354CC007D5
:1019700054D0E0690026C00008D4E06940F08050EF
:10198000E061E069012600F0805000902E48016877
:10199000C90512D40168804641F480710160FFF7E7
:1019A0003FFA074605E000BFFFF73AFAC01B64287C
:1019B00023D8D8F80000C005F6D5206A10F440708E
:1019C00021D0A98801F4407181421CD0206A1F49AE
:1019D000012220F440700A6000220A602062C007E1
:1019E00011D0FFF71DFA074641F2883808E000BF22
:1019F000FFF716FAC11B414502D90320BDE8F88361
:101A0000206A8007F4D5206A696820F44070084392
:101A100020621EB1E06920F08050E06128788007E4
:101A200005D56068A96820F44040084360602878C4
:101A3000C00605D56068E96820F48000084360604E
:101A40000020DBE7001002400070004040044242EA
:101A50002DE9F0470F46050061D0434E306800F095
:101A60000700B84209D2306820F0070038433060E0
:101A7000306800F00700B84251D128683B4C81071C
:101A800012D5400703D5606840F4E06060602878B4
:101A9000000703D5606840F4605060606068A96822
:101AA00020F0F000084360602878C00728D06868FC
:101AB000012810D02168022810D0890700292EDAC9
:101AC000616821F0030101436160FFF7A9F98046D5
:101AD00041F288390DE021688903EFE78901EDE7DC
:101AE000FFF79EF9A0EB0801494502D90320BDE8A4
:101AF000F0876068696800F00C00B0EB810FEFD1EF
:101B0000306800F00700B8420BD9306820F00700B9
:101B100038433060306800F00700B84201D001203F
:101B2000E5E72878400705D56068E96820F4E060BB
:101B3000084360602878000706D56068296920F4AA
:101B4000605040EAC100606000F028F86168084A0F
:101B5000C1F30311515CC84006490860064800689B
:101B6000FFF77EF90020C2E700200240001002408B
:101B7000B8480008C4000020BC0000200448054903
:101B800000684968044AC1F3C221515CC8407047EB
:101B9000C400002000100240C84800080E4A5168E6
:101BA0000E4801F00C03042B11D0082B0FD10C4868
:101BB000C1F38343C903C05C0AD55168084AC1F325
:101BC0004041921E515C054A5043B0FBF1F0704712
:101BD00004494843704700000010024000127A0098
:101BE0009648000800093D002DE9F84F040070D028
:101BF0002078C04DC00749D06868C0F38100012833
:101C000007D06868C0F38100022809D16868C00362
:101C100006D52868800339D560680028E7D035E00C
:101C20006068B0F5803F0BD010B1B0F5A02F11D097
:101C3000286820F480302860286820F4802002E0A2
:101C4000286840F480302860606890B1FFF7E8F8B9
:101C500006460AE0286840F480202860F0E700BFCC
:101C6000FFF7DEF8801B642873D828688003F7D557
:101C70000CE0FFF7D5F8064605E000BFFFF7D0F807
:101C8000801B6428F0D828688003F7D420789A4E07
:101C900080074FF001094FF0000839D5686810F04F
:101CA0000C0F07D06868C0F38100022809D168686A
:101CB000C00306D42868800714D52069012808D1FC
:101CC00010E02069B0B1C6F80090FFF7A9F8074608
:101CD00005E00AE1FFF7A4F8C01B0228C4D8286871
:101CE0008007F7D52868616920F0F80040EAC10054
:101CF00028600DE0C6F80080FFF792F8074604E080
:101D0000FFF78EF8C01B022823D828688007F7D475
:101D1000207800072CD57948A169D9B1C0F8009086
:101D2000FFF77EF8074604E0FFF77AF8C01B0228A9
:101D30000FD8686A8007F7D571484FF4FA510068E8
:101D4000B0FBF1F0009000BF0098411E0091FAD264
:101D50000EE080E0C0F80080FFF762F8074604E07C
:101D6000FFF75EF8C01B022875D8686A8007F7D4B1
:101D70002078400760D5E8690027C00008D4E869EA
:101D800040F08050E861E869012700F08050009041
:101D90005C480168C90513D40168834641F4807129
:101DA0000160FFF73DF8824606E000BFFFF738F814
:101DB000A0EB0A0064284ED8DBF80000C005F5D57A
:101DC000E06801280AD008B1052813D0286A20F05D
:101DD00001002862286A20F0040002E0286A40F02E
:101DE00001002862E06841F2883B98B1FFF718F8DB
:101DF00082460BE0286A40F004002862EEE700BF4C
:101E0000FFF70EF8A0EB0A0159455AD8286A800757
:101E1000F6D50CE0FFF704F8824605E0FFF700F87E
:101E2000A0EB0A0159454CD8286A8007F6D41FB1A7
:101E3000E86920F08050E861E06988B36968C1F31F
:101E40008101022944D00228C6F8608004D0FEF740
:101E5000E7FF044638E034E0FEF7E2FF074604E01F
:101E6000FEF7DEFFC01B02282BD828688001F7D4BC
:101E7000206AB0F5803F05D16868A16820F4003081
:101E800008436860D4E908010843696821F47411C3
:101E900008436860C6F86090FEF7C2FF044606E09B
:101EA00025E000BFFEF7BCFF001B022809D8286808
:101EB0008001F7D51BE000BFFEF7B2FF001B022830
:101EC00002D90320BDE8F88F28688001F4D40EE021
:101ED0000128F7D06868226A00F48031914204D169
:101EE000616A00F47010884201D00120EAE7002006
:101EF000E8E7000000100240000042428004424235
:101F0000C40000200070004010B5401EB0F1807F7A
:101F100001D3012010BD4FF0E02460610F21601754
:101F200001F044FE0020A06107202061002010BDC8
:101F3000FEE70000F0B500230A24302537261F46AF
:101F400011E000BFB4EB107F02D905EB107C01E07B
:101F500006EB107C01F813C001EB430C00015B1C85
:101F60008CF80170DBB29342ECD3F0BD3EB500219A
:101F70002F48009101912D4A0291026092158260D2
:101F800001250573017507244FF460220461C261C5
:101F90004160FEF7C1FB08B172B6FEE70095CDE9DE
:101FA000015469462248FEF70DFB08B172B6FEE700
:101FB00002200090019069461D48FEF703FB08B11E
:101FC00072B6FEE70C200090032001906946184885
:101FD000FEF7F8FA08B172B6FEE70420009001900F
:101FE00069461348FEF7EEFA08B172B6FEE705201F
:101FF0000090019069460E48FEF7E4FA08B172B607
:10200000FEE706200090019069460948FEF7DAFADB
:1020100008B172B6FEE70094694605480194FEF7E0
:10202000D1FA002801D072B6FEE73EBD002401407F
:10203000E00100202DE9F04385B000242D480094F4
:10204000019402940394816941F0200181618169C6
:1020500001F020010491816941F0100181618169E1
:1020600001F010010491816941F0040181618169ED
:1020700001F004010491816941F0080181618069E6
:10208000DFF8748000F0080040F6FB750490002231
:1020900029464046FEF7BEFEDFF860900022294642
:1020A0004846FEF7B7FE0227012603970095CDE9C3
:1020B000016469464046FEF7BDFD40F20110CDE9DE
:1020C000000469460E480294FEF7B4FD039700959C
:1020D000CDE9016469464846FEF7ACFD4FF4C040C7
:1020E000CDE90004694648460294FEF7A3FD05B019
:1020F000BDE8F0830010024000100140000C0140D8
:102100000008014010B500220F49104800F0C6FC3D
:1021100008B1FEF7E9F90E490C4800F097FE08B146
:10212000FEF7E2F90B49094800F0BAFA08B1FEF7E8
:10213000DBF9064800F0E0FE002803D0BDE81040BF
:10214000FEF7D2B910BD0000380000208802002040
:10215000CC000020A8000020FEE7FEE72DE9F84FA4
:10216000044640F68F7B48F60F794FF480684FF0B5
:10217000000AC0E1B0F8441011F00F0539D030F872
:10218000256031047ED530F8251001EA0B0141F0BD
:10219000800120F8251005EB850004EBC00797F8B7
:1021A000740107F5B47700286DD0F87802286BD059
:1021B0003978226832F8210048F68F73184048F2C7
:1021C000C003184322F821003978206830F8212014
:1021D000B0F8503052047DD5022202EBC1015A18EA
:1021E00008EB4201415A8905890D009173D03A8963
:1021F000DFE0C9062DD4018801EA090141F400415C
:102200000180206804F12805B0F8503029780222B6
:1022100002EBC1015A1808EB4201405AC0F3090011
:102220006064E16B0844E06300212046FEF7B5FEE0
:1022300094F8240000289CD0A869002899D194F82B
:102240002400216840F08000A1F84C0084F824A00C
:1022500051E1018804F5B4750A0521D5B0F8502084
:102260002B78062101EBC3010A4408EB4201405AD6
:1022700004F52C71C0F30903EB61EA88206801F0D2
:1022800063FC02E0B0E070E080E02068018801EAD1
:102290000B0141F0800101802046FFF7DEFA2AE1C0
:1022A0000904D5D5018801EA0B0141F080010180C4
:1022B0002068B0F850202B78062101EBC3010A44B6
:1022C00008EB4201405A83059B0DEB6110D0696910
:1022D00071B101E061E05FE0EA88206801F034FC60
:1022E000E96968690844686100212046FEF75EFEDE
:1022F000216808880205ABD4C0F301300328A7D0B9
:10230000B1F850000844B0F80C14C1F30901A0F86A
:102310000C142A6900F20C403E2A09D95109D20650
:1023200000D1491E02884FF4004343EA812109E0AD
:10233000B2B15108D20700D0491C02884FF6FF7392
:1023400003EA81210A430280216808884BF68F72D4
:10235000104080F4405048F2800210430880CAE0E8
:10236000018841F400410180EEE72068B0F8502078
:102370003B78062101EBC3010A4408EB4201415AB4
:102380008905890D009118D0FA8812E03246394645
:102390002046FEF769FE00900FE0062202EBC10125
:1023A0005A1808EB4201415A8905890D009104D061
:1023B0007A897969009B01F0C7FBF86900990844A4
:1023C000F8617969009808447861B86918B1396989
:1023D0000098814204D939782046FEF7E7FD03E0F2
:1023E0003946206801F02CF930062FD505EB850021
:1023F00004EBC001206830F8252002EA090242F40B
:10240000004220F8252091F82B00283101281ED009
:10241000F0056CD42068B0F850300D78022202EB41
:10242000C5021A4408EB4202805A8A69C0F30900C7
:10243000824255D9121A8A6154D04A6902444A61CB
:10244000CA691044C861206801F0FAF853E0C1F885
:1024500018A0087B524608B3700620D5487810B102
:10246000012812D03AE02068B0F8502010440A78D1
:1024700000EB0210B0F80424C2F30902A0F804240F
:10248000B0F8042442F4004206E02068B0F850306E
:1024900018440B7800EB0310A0F804241EE04B78DE
:1024A000206813B1012B11D018E0B0F8502010446F
:1024B0000A7800EB0210B0F80C24C2F30902A0F86D
:1024C0000C24B0F80C2442F4004205E0B0F850307F
:1024D00018440B7800EB0310A0F80C24097802E0F4
:1024E000C1F818A0E9B22046FEF757FD03E03246D6
:1024F0002046FEF72CFE2068B0F8441009043FF592
:1025000039AE0020BDE8F88F70477047FEF78EBCEB
:1025100030B593B028216846FDF7A8FE14210AA81B
:10252000FDF7A4FE002401200F94109411940104DF
:1025300012948DE8130004904FF4E010CDE90810D8
:10254000022507956846FFF74FFB08B172B6FEE714
:102550000F20CDE90A054FF48060CDE90C4002213F
:102560000AA80E94FFF774FA08B172B6FEE71220BB
:102570000F904FF40040CDE911040FA8FFF7F2F9D6
:10258000002801D072B6FEE713B030BD7047D0F816
:10259000B802002180F850100846704770B5054613
:1025A000D0F8B842D5F8BC226178D268207890473C
:1025B000402322460121284600F090FB002070BDF8
:1025C00070B50446812100F087FA002501212046DC
:1025D000E56200F081FAC4F86C51D4F8B80248B151
:1025E000D4F8BC0204F52E7480688047206800F09F
:1025F000E0FD2560002070BD10B5D0F8B842E16C58
:10260000012908D1D0F8BC0223786178C268184645
:1026100090470020E064002010BD00000A210180E6
:10262000004870479401002029210180004870472C
:10263000040100202921018000487047300100205A
:1026400029210180004870475C01002070B50446D4
:10265000002602230322812100F034FB01250223FE
:10266000032229462046E56200F02CFB5420C4F8E2
:102670006C5100F09FFDC4F8B80278B10546002007
:1026800085F85000D4F8BC024068804740232A46B1
:102690000121204600F022FB304670BD0126FBE7F9
:1026A00002460220002902D00020C2F8BC12704766
:1026B00010B5134690F89C42D0F8B822032C0BD1E9
:1026C00092F850400CB1012010BD012482F8504016
:1026D0000A46812100F09DFB002010BDF8B50022C4
:1026E000D0F8B832ADF800200E781546144616F032
:1026F000600622D0202E56D14A78921E0A2A52D243
:10270000DFE802F010085151515151140C0588783E
:1027100018644BE0012203F1400135E04888000ACB
:10272000586443E0012203F144012DE00122DA6400
:10273000CA88194600F064F838E04E7836B1062EA3
:102740000BD00A2E23D00B2E2DD128E090F89C22FE
:10275000032A28D10222694616E04B882226B6EBCE
:10276000132F07D1CA881E2A00D91E22D0F8BC1206
:102770000D6808E02126B6EB132F04D1CA880E4D50
:10278000092A00D90922294600F054F80EE090F8F1
:102790009C22032A07D1012203F14801F4E790F8B3
:1027A0009C22032A04D000F020F802242046F8BD21
:1027B00088789864FAE700008801002010B5D0F806
:1027C000B42252689047002010BD134610B50A4647
:1027D000002100F083FA002010BD134610B50A4610
:1027E000002100F016FB002010BD10B5044680212A
:1027F00000F0F4FA2046BDE81040002100F0EEBAE7
:1028000010B50323C0F85C21C0F89432C0F86021F1
:1028100013460A46002100F061FA002010BD10B5F1
:1028200005210023C0F894121A46194600F056FA02
:10283000002010BD10B50223C261C0F894320262BC
:1028400013460A46002100F0E4FA002010BD10B53E
:1028500004210023C0F894121A46194600F0D9FA50
:10286000002010BD10B50A46024903A000F0E6F8AA
:10287000004810BD4C050020437573746F6D2048EF
:10288000494420436F6E666967000000122008808B
:10289000004870475800002010B50A46024903A0BE
:1028A00000F0CCF8004810BD4C050020437573744F
:1028B0006F6D2048494420496E7465726661636596
:1028C00000000000042008800048704754000020E9
:1028D00010B50A46024903A000F0B0F8004810BD48
:1028E0004C05002053544D6963726F656C656374C9
:1028F000726F6E696373000010B50A46024903A047
:1029000000F09CF8004810BD4C05002053544D3396
:102910003220437573746F6D2048756D616E206948
:102920006E746572666163650000000010B51A2060
:102930000880401809D008220549FFF7FBFA04492E
:10294000042210312046FFF7F5FA0148801E10BD21
:102950006E000020F8B504460020ADF8000048885D
:102960000D46010A082948D2DFE801F0470409179B
:1029700047473C45D4F8B012207C0A6819E0207C17
:1029800002260028D4F8B40205D0C16A68468847F8
:10299000014646703EE0816AF8E7C0B206282CD2B4
:1029A000DFE800F0030A1014181CD4F8B0024268E3
:1029B00005E0694690471CE0D4F8B0028268E2B1B5
:1029C000207CF6E7D4F8B002C268F8E7D4F8B00289
:1029D0000269F4E7D4F8B0024269F0E7D4F8B00233
:1029E0008269ECE7207C40B9D4F8B402416B6846B8
:1029F000884701460EE0207C20B129462046FFF79B
:102A0000F4FEF8BDD4F8B402016B6846884701466D
:102A100007204870BDF8000048B1EA8852B18242F0
:102A200000D90246ADF800202046FFF703FFE888F2
:102A30000028E6D12046FFF70AFFF8BD70B5002355
:102A400000281ED00446002502E06D1CEDB2641C77
:102A50002678002EF9D1022404EB45041480127864
:102A6000CA545B1C0322CA5400245B1C06E0CA54EF
:102A70005B1CDAB28C54521CD3B2401C0278002A80
:102A8000F5D170BD01004FF0000004D0012901D044
:102A9000022901D0022070470120704710B580B193
:102AA000D0F8B43213B10023C0F8B43209B1C0F881
:102AB000B012012180F89C12027000F0BBF80020D7
:102AC00010BD022010BD10B5D0F8C002FEF79EFA6E
:102AD000BDE81040FFF7D6BF10B5D0F8C002FEF732
:102AE0006FFABDE81040FFF7CDBF2DE9F041174662
:102AF000044651B1D4F8B40242691AB194F89C0268
:102B0000032851D00220BDE8F081D4F8943200258A
:102B100004F11400022B03D0042B3AD0C3B33CE0E1
:102B2000D0E903639E4207D9F11AC1608AB23946DF
:102B30002046FFF752FE12E08068B0FBF3F103FB82
:102B4000110199B9984211D3D4F8981288420DD244
:102B5000002211462046FFF740FEC4F89852002399
:102B60001A461946204600F0B9F816E0D4F8B40227
:102B7000C16829B194F89C02032801D120468847F6
:102B80008021204600F02AF92046FFF748FE04E0A5
:102B9000FFE78021204600F021F994F8A0020128E7
:102BA00004D184F8A05201E0204690470020AAE713
:102BB00070B51546044649B1D4F8B40282691AB119
:102BC00094F89C02032830D0022070BDD4F89412EF
:102BD00004F5AA70032902D005291ED027E0D0E908
:102BE00003218A420BD9531AC3600846834200D39B
:102BF00003469AB229462046FFF7E7FD17E0D4F8CE
:102C0000B402016929B194F89C02032801D120463D
:102C100088472046FFF71BFE09E000200146C4F864
:102C20009402204600F0DAF801E0204690470020A8
:102C300070BD000010B519490446C1F8EC02C0F897
:102C4000C0121748086008204860022088600020F1
:102C50008861C86108620846FEF744FD08B1FDF7C7
:102C600043FC0022D4F8C0021823114604F5307446
:102C7000FEF774F95823002280212068FEF76EF9D0
:102C80009823002281212068FEF768F9D8230022CA
:102C900001212068FEF762F9002010BDA407002082
:102CA000005C00400A0601F07F01D0F8C00201EB91
:102CB000810100EBC10002D590F82A00704790F81E
:102CC0006A01704710B51C461346D0F8C002224670
:102CD000FEF7D9FBBDE81040FFF7D4BE10B5D0F821
:102CE000C002FEF7FDFBBDE81040FFF7CBBE70B59C
:102CF0000022044640231146FFF7E4FF4026012549
:102D0000C4F864613346002280212046C4F858513B
:102D1000FFF7D8FF6662A56184F89C520020C4F8D2
:102D200094026060C4F8A402D4F8B80228B1D4F8C0
:102D3000B4020021426820469047002070BD90F800
:102D40009C12042903D190F89D1280F89C12002057
:102D5000704710B590F89C12032904D1D0F8B41232
:102D6000C96901B18847002010BD01740020704777
:102D700010B5D0F8C002FEF75CFDBDE81040FFF7CB
:102D800081BE70B5044600F52A70054600F04AF889
:102D90000120C4F89402B4F8AE02C4F8980294F882
:102DA000A80210F01F010AD001290DD0022910D06D
:102DB00000F08001204600F011F8002070BD294687
:102DC000204600F09EF8F8E72946204600F0CAF9B0
:102DD000F3E72946204600F01DF9EEE710B5D0F8DC
:102DE000C002FEF794FBBDE81040FFF74BBE10B5E4
:102DF000D0F8C002FEF738FDBDE81040FFF742BE34
:102E000090F89C1280F89D12042180F89C120020FA
:102E1000704710B5D0F8C002FEF7B2FBBDE8104015
:102E2000FFF730BE0A7802704A7842708A78CB7811
:102E300002EB032242800A794B7902EB0322828063
:102E40008A79C97902EB0121C180704702460020CE
:102E500011B1C2F8B41270470220704710B5D0F813
:102E6000B42202241AB11268904700B90024204607
:102E700010BD000070B50E461E4D897804462970BD
:102E8000012931D894F89C0202280BD003280FD0D6
:102E900031462046FFF7A9FC29782046BDE870405E
:102EA000FFF78CBCD9B10320616084F89C0209E073
:102EB00071B16068884212D0C1B22046FFF77EFC33
:102EC000297861602046FFF7C9FF02280CD006E090
:102ED000022084F89C0220466160FFF76FFC2046C8
:102EE000BDE87040FFF7B3BC31462046BDE87040F6
:102EF000FFF77BBCC800002010B5FFF778FF00206B
:102F000010BD2DE9F0410A78002612F0600208D0C9
:102F1000202A01D0402A70D1D0F8B422926890477C
:102F20006DE04B78002201250A2B66D2DFE803F022
:102F3000405D6557650805652C29FFF70BFD5EE0D0
:102F400004468888D8B9C888C8B94888802816D265
:102F500000F07F0794F89C02032810D084F89E723A
:102F600039462046FFF704FF2046FFF770FC1FB1EB
:102F7000022084F89C0242E084F89C523FE0204604
:102F80003BE0FFF777FF3AE0CB88012B35D190F893
:102F90009C32012B04D0022B02D0032B2DD104E054
:102FA0008260012200F1080116E00122011D13E0F8
:102FB00090F89C22012A03D0022A01D0032A1CD1B6
:102FC000CA88022A19D1C560D0F8A41209B1032118
:102FD000C160022200F10C01FFF72CFC0FE04988D0
:102FE00001290CD1C0F8A45211E090F89C32012BB9
:102FF00008D0022B06D0032B04D0FFF7F6FB304697
:10300000BDE8F08149880129F9D1C0F8A422FFF771
:103010001EFCF4E72DE9F0410A460446107800272B
:10302000097910F060030AD0202B01D0402B50D139
:10303000D4F8B40211468368204698478FE0C0F365
:103040004110012806D05078D0B301282AD0032897
:103050003FD107E0D4F8B402114683682046BDE8AA
:10306000F041184794F89C02022802D0032872D13C
:103070000AE071B380296ED02046FFF7AFFE8021B1
:103080002046FFF7ABFE6AE0508838B931B180299D
:1030900004D0D08810B92046FFF7A0FE2046FFF7E5
:1030A000D6FB5CE094F89C020228E2D0032852D1BF
:1030B000508898BB4806F1D02046FFF704FDEDE7A5
:1030C000FFE794F89C020026022803D0032842D18F
:1030D00012E040E009B180293DD1080601F07F00EF
:1030E00000EB800004EB800101D5143101E001F513
:1030F000AA7102220E602AE0080601F00F0000EB20
:10310000800004EB80000AD5806920B301F07F00C5
:1031100000EB800004EB800514350BE01FE0D0F8D5
:103120005801C0B101F07F0000EB800004EB800586
:1031300005F5AA7541B1802906D02046FFF7B2FDFA
:1031400010B10120286000E02E60022229462046AE
:10315000FFF770FB03E011462046FFF746FB3846B9
:10316000BDE8F08170B5054608780C4610F06000A7
:1031700003D0202801D0402816D195F89C020128C0
:1031800003D0022801D003280ED1207901280BD8C2
:10319000D5F8B402826828469047E188014306D1F9
:1031A0002846FFF754FB02E02846FFF71EFB0020ED
:1031B00070BD7047004870474C0700202DE9F0476C
:1031C0000C78002630F8243048F68F121340CA7865
:1031D000002A78D0012A7CD0022A02D0032A75D096
:1031E000012648F28002134320F824300D7830F88D
:1031F000253048F68F7423402B43134320F82530A5
:103200000D7B48F2C00948F6BF734CF2800A4BF6BA
:103210008F77EDB3CD7891F800C0022D30F82C50A7
:103220007DD048F68F6805EA0805154320F82C5034
:10323000B0F8505091F800C0054405EB0C15B1F8FA
:1032400008C02CF0010CA5F800C4B0F8505091F85B
:1032500000C0054405EB0C15B1F80AC02CF0010CB8
:10326000A5F808C44D78002D7ED00D7830F825C023
:103270005FEA4C4C07D530F825C00CEA040C4CEA48
:103280000A0C20F825C091F800C030F82C5000E05E
:1032900022E06D0606D530F82C50254045EA090598
:1032A00020F82C50CC780D78012C30F8254004EA19
:1032B00003047CD084F02003134320F82530C1E0C0
:1032C00001E006E002E043F400738AE743F4C063E0
:1032D00087E743F4806384E74D784DB3B0F85050EE
:1032E0000F78054405EB0715CF8827F00107A5F8EF
:1032F00000740F7830F827506D0606D530F8275047
:10330000254045EA090520F82750CC78012C07D044
:103310000C7830F82410194081F0200104E064E0BA
:103320000C7830F824101940114320F8241090E054
:10333000B0F850300D78034403EB0513CD8825F029
:103340000105A3F80854B0F850300D78034403EB9E
:103350000513B3F80C54C5F30905A3F80C540D6913
:1033600003F20C433E2D00E045E00BD94FEA551C1B
:10337000ED0601D1ACF1010C1D884FF4004848EA7C
:103380008C2C0BE035B34FEA550CED0701D00CF156
:10339000010C1D884FF6FF7808EA8C2C45EA0C05D5
:1033A0001D800D7830F825305B0408D500E046E03C
:1033B00030F82530234043EA0A0320F82530097805
:1033C00061B130F821303B4083F40053134320F8BF
:1033D00021303EE01D8845F40045E1E70188394091
:1033E00081F440511143018033E0254048F28018B8
:1033F00045EA08051AE791F800C030F82C506D0432
:1034000006D530F82C50254045EA0A0520F82C5006
:1034100091F800C030F82C506D0606D530F82C50CD
:10342000254045EA090520F82C500D7830F8254054
:103430003C4084F44054144320F8254070E7144382
:1034400020F825400B7830F823103940114320F83C
:1034500023103046BDE8F087002070472DE9F04387
:1034600091F80C804F780A7848F6BF7C4BF68F793C
:1034700048F2800348F2C0054CF2800648F68F748B
:10348000B8F1000F28D0002F30F822704FEA4747DC
:1034900048D0002F05DA30F822702740374320F853
:1034A00022700A7830F822707F0605D530F8227035
:1034B00027402F4320F822700D7830F82520224035
:1034C000324320F825200C7830F8242002EA0C0240
:1034D0001A4320F824201AE07FB130F822607606E3
:1034E00005D530F8226026402E4320F822600A7865
:1034F00030F8221001EA0C010EE030F822506D0481
:1035000005D530F822502540354320F822500A785E
:1035100030F8221001EA0901194320F82210002096
:10352000BDE8F083002F05DA30F8227027403743DA
:1035300020F822700A7830F82260760605D530F837
:10354000226026402E4320F822600E7830F8262094
:1035500022402A4320F826200C7830F8242002EA62
:1035600009021A4320F82420C1E7002070470020F8
:103570007047012120F8401F0021018081800182D5
:103580000846704730F8401F21F43F410180002079
:1035900070470020704730B50A7BB2BB4A7848F6C6
:1035A0008F7548F28004C2B10B7830F823205206A0
:1035B00007D530F823202A4048F2C0052A4320F8D6
:1035C0002320CA78012A20D00A7830F8221048F641
:1035D000BF73194081F0200114E00A7830F82230DE
:1035E0005B0407D530F822302B404CF280052B438A
:1035F00020F822300A7830F822104BF68F731940E9
:1036000081F44051214320F82210002030BD10B534
:103610004A780978002A48F2800330F8212005D042
:1036200048F6BF74224082F0100204E04BF68F741B
:10363000224082F480521A4320F82120002010BD3D
:103640002DE9F0470D464B78097B04464FF0000901
:1036500048F68F7248F2800A4FF400474FF6FF7821
:10366000012B09D000296FD0E87802286DD00128FD
:103670006CD00120BDE8F087AE692869864200D988
:10368000064691B1E97802291ED0286A801B28627B
:10369000287834F820104906B4F85010214401EB82
:1036A000001073D5A0F80C6416E1B3B2EA88204686
:1036B000696900F067FAB4F850002978204400EBFB
:1036C0000110A0F804640DE1296A814277D92978B4
:1036D00034F82100104048F28012104324F82100F1
:1036E000286A801B2862287834F8201049066978F7
:1036F00071D511B101292AD030E0B4F8501021441D
:1037000001EB0010B0F80C14C1F30901A0F80C147F
:1037100000F20C403E2E07D97109F20600D1491E75
:10372000028847EA812107E04EB17108F20700D014
:10373000491C028808EA81210A4302800EE00188C0
:1037400041F40041018009E0F1E020E195E1B4F8A5
:103750005020111901EB0010A0F80C646A89B3B273
:103760002046696900F00EFA686930446861296989
:10377000286A884202D9801B286202E00646C5F802
:103780002090687818B101282BD032E02FE0B4F8EF
:1037900050002978204400EB0110B0F80414C1F364
:1037A0000901A0F8041400F204403E2E08D9710962
:1037B000F20600D1491E028847EA812108E0A1E013
:1037C00056B17108F20700D0491C028808EA81212D
:1037D0000A4302800DE00EE0018841F400410180BF
:1037E00007E0B4F850002978204400EB0110A0F85D
:1037F00004642A8971E011B1012927D02DE0B4F8C1
:103800005010214401EB0010B0F80414C1F3090179
:10381000A0F8041400F204403E2E07D97109F20604
:1038200000D1491E028847EA812107E04EB17108A4
:10383000F20700D0491C028808EA81210A4302806D
:103840000BE0018841F40041018006E0B4F850101B
:10385000214401EB0010A0F804642A89B3B2204689
:10386000696900F08FF96869304468612969286ADC
:10387000884202D9801B286202E00646C5F82090E3
:10388000687810B1012836D026E0B4F850002978C5
:10389000204400EB0110B0F80C14C1F30901A0F8AA
:1038A0000C1400F20C403E2E07D97109F20600D12B
:1038B000491E028847EA812107E04EB17108F207EC
:1038C00000D0491C028808EA81210A43028003E0F3
:1038D000018841F4004101806A89B3B220466969D8
:1038E00000F050F9297834F8210048F6BF721040F2
:1038F00080F030000FE1B4F850100819297800EB7F
:103900000110CFE62A7834F8220048F68F63184079
:1039100040EA0A0024F82200B4F850002A78204433
:1039200000EB02108BB2A0F804342A89D6E7A9690B
:103930002869814202D9091AA96102E00846C5F83E
:103940001890B4F850102A78214401EB0211B1F814
:103950000C24C2F30902A1F80C2401F20C413E2808
:103960007DD94209C00600D1521E088847EA82224A
:103970000AE0088840F4004007E04208C00700D091
:10398000521C088808EA822210430880BBE033BB3F
:10399000B4F850002978204400EB0110B0F804146A
:1039A000C1F30901A0F80414296900F204403E297A
:1039B00007D94B09C90600D15B1E018847EA83235A
:1039C00007E041B14B08C90700D05B1C018808EA39
:1039D0008323194302E0018841F4004101806878A3
:1039E00010B1012828D030E0B4F8500029782044E4
:1039F00000EB0110B0F80C14C1F30901A0F80C148D
:103A0000296900F20C403E2907D94B09C90600D1AB
:103A10005B1E018847EA832307E041B14B08C907D1
:103A200000D05B1C018808EA8323194302E0018867
:103A300041F40041018008E0B4F8501008192978D9
:103A400000EB0110298AA0F80C14E869C0B32978AA
:103A500034F82100430401D5430605D400E046E0D4
:103A600044F2400318424ED134F82100104048F28D
:103A7000C002104324F8210045E0A9692869814269
:103A800002D9091AA96102E00846C5F8189013BBCB
:103A9000B4F850102A78214401EB0211B1F8042443
:103AA000C2F30902A1F8042401F204413E2808D916
:103AB0004209C30600D1521E0B8847EA822208E061
:103AC00021E078B14208C30700D0521C0B8808EAF5
:103AD000822213430B80697800293FF42EAF01291D
:103AE00009D010E00A8842F400420A80F3E7002877
:103AF0007FF443AF3DE7B4F8502011192A7801EB69
:103B00000211A1F80C04297834F821004BF68F72C9
:103B1000104080F4405040EA0A0024F821000020C0
:103B2000A8E50021A0F844104FF43F41A0F8401050
:103B3000002070470148FDF73BBD0000A4070020AE
:103B4000B0F844007047000010B500EB42005C087C
:103B500000F5806009D000BF30F8042B01F8012B7C
:103B6000120A01F8012B641EF6D1DA0701D0008891
:103B7000087010BD0020704711B98021A0F84C10CA
:103B80000020704710B55B1C00EB42005B0800F59D
:103B9000806009D011F8012B11F8014B42EA042290
:103BA00020F8042B5B1EF5D110BDFEE70907090EB6
:103BB000002804DB00F1E02080F80014704700F0DA
:103BC0000F0000F1E02080F8141D704770B51C4C08
:103BD000A51588B101281BD0022825D0194900203D
:103BE00008600220FDF714F8BDE8704001224FF490
:103BF000C8711548FDF70EB9012210212046FDF7C6
:103C000009F9012280212046FDF704F9002206E08F
:103C1000012210212046FDF7FDF800220AE0294686
:103C20002046FDF7F7F8DCE7002210212046FDF7DB
:103C3000F1F8012280212046FDF7ECF80122EEE7A1
:103C40000010014000000020000C0140A4B0FDF76E
:103C5000F5F8402110A8FCF709FBFEF759FCFEF728
:103C6000E9F93448416941F00101416140690022AC
:103C700000F00100209011460B20FDF73DF90B20CC
:103C8000FDF72CF9FEF772F9FEF73CFADFF8A8B061
:103C90006C4629483038FCF729FC27490722A1F156
:103CA0003000FCF71FFE00254FEA0B0636F8150022
:103CB00000F022FD44F825006D1C072DF6DB0020E6
:103CC0000DF1400114F8202001F8202004EB8002BF
:103CD00001EB800355785D7095789D70D278401C1B
:103CE000DA700728EEDB144E0025DFF85090DFF87D
:103CF00050A0703E6FF00B074FF0663830783946B1
:103D000054F8200000F088FD00F0C4FC42464B4609
:103D100000F08CFB0022534600F088FB00F014F802
:103D20006D1C642DEADB402210A90648FEF7C0FC9A
:103D3000AFE70000001002401002002066660A4053
:103D400000002440880200202DE9F05FA74F0446C0
:103D50000D4640F66A66DFF890824FF00A0BDFF8F6
:103D600090A2002231463846FDF754F8002213464F
:103D70002046294600F058FC7DD200229D4B20466B
:103D8000294600F017FBF7D20022D14653462046C1
:103D9000294600F00FFB23D20022974B20462946EC
:103DA00000F042FC1CD22046294600F0C1FA38F847
:103DB0002000012281B2BA463846FDF72BF80122D5
:103DC00011465046FDF726F80220FFF7FFFE0022BD
:103DD000374631465046FDF71DF80022012175E0B7
:103DE00000224B462046294600F01EFC4FF0000200
:103DF0004ED2CA464B462046294600F041F900F013
:103E000097FA38F82000012281B2B9463846FDF70A
:103E100001F80220FFF7DAFE002237463146484615
:103E2000FCF7F8FF2046294600F082FA5E4690FB38
:103E3000F6F10BFB1101012238F8210081B248464E
:103E4000FCF7E8FF012211464846FCF7E3FF01209A
:103E5000FFF7BCFE002239464846FCF7DBFF002294
:103E600001214846FCF7D6FF00225346204629464A
:103E700000F0DCFA00E05AE000F05AFA90FBF6F1AC
:103E800006FB1101012238F8210081B24846A2E068
:103E9000594B2046294600F08DFA79D2B8F8000037
:103EA000012281B2BA463846FCF7B4FF012211461E
:103EB0005046FCF7AFFF0220FFF788FE00220121E9
:103EC0005046FCF7A7FF0022374631465046FCF724
:103ED000A1FF00224B462046294600F0A7FA00F039
:103EE00027FA5E4690FBF6F10BFB1101012238F830
:103EF000210081B25046FCF78DFF0120FFF766FEDE
:103F0000002239465046FCF785FF0022394B2046F7
:103F1000294600F08BFA00F00BFA90FBF6F106FB55
:103F20001101012238F8210081B2504653E0334A92
:103F3000334B2046294600F03DFA2AD2B8F800005B
:103F4000444681B201223846FCF764FF0122114643
:103F50003846FCF75FFF0220FFF738FE0022012100
:103F60003846FCF757FF002231463846FCF752FF2F
:103F70002088012281B23846FCF74CFF0120FFF770
:103F800025FE002231463846FCF744FF20881FE01A
:103F900028E0154C0122083C208881B23846FCF705
:103FA00039FF0220FFF712FE002231463846FCF7A7
:103FB00031FFA088012281B23846FCF72BFF012097
:103FC000FFF704FE002231463846FCF723FFA088A5
:103FD000012281B23846FCF71DFFBDE8F05F0020EA
:103FE000FFF7F4BDBDE8F09F0C0000200010014079
:103FF00000002440000059400000F03F48AFBC9A48
:10400000F2D77A3E21F00042A2F16052B2F5801F51
:1040100001F0004328BFD2F17F6C0BD95FEA001C8E
:1040200043EAC20242EB507018BF704728BF20F02D
:1040300001007047B2F5801FBCBF184670474FEAB9
:10404000410C1CF5001F02D2084600F0AEBB70B553
:1040500000F096FA00000089FFF7F6BF4FF000402D
:10406000A0F580007047491058BFC1F140415B1076
:1040700058BFC3F140438B42EFF30080704700000C
:104080002DE9C04130B4DFF8A0C23CEA111418BFDA
:104090003CEA131400F0EC8081EA03051CEA1114D9
:1040A00044EAD57418BF1CEA131500F0C780A4EBCE
:1040B00005044FF0004545EAC12145EAC32341EA22
:1040C000505143EA525304F17F74994204F500348D
:1040D0004FEAC0204FEAC22208BF904200F09C8005
:1040E0004FEA13650FF24016765D4FEA134506FB63
:1040F00005F7C7F1807706FB07F74FEAD737A7FB2D
:1041000003687642C8F58038A7FB06CE38BFA8F111
:10411000010807FB08E64FF0000EA6FB028CE6FB49
:1041200003CEDCF1000CCEF1004E38BFAEF1010E33
:10413000A6FB0C584FF000074FF00005E6FB0E877A
:10414000A1FB08C6A0FB07CE16EB0E0645F1000545
:10415000E1FB076515F1E04E7EBFA4F580345FEA10
:1041600046066D4116F1800745F100054FEA172715
:104170004FEA066647EA0567A6F1DE46B6F1805FBC
:104180004FEA15251FD9384624F0010C05EBC47100
:10419000BCF1FE6F01EB0C1102D8F0BCBDE8008150
:1041A00024425CBF01F5801E9EEAC47F02D4F0BCAD
:1041B000BDE80081244238D4F0BCA1F1C041BDE883
:1041C000004100F02BBA4FEAD22242EA43524FEAB2
:1041D000D323A7FB02864FEAD02040EA415007FBD9
:1041E00003661EEA0E0F4FEAD12105FB026658BF97
:1041F000A6EB0056B6EB00564FEA520E4EEAC37ECF
:1042000018EB0E0E56EB530EBDD518EB02085E41AF
:104210007F1C55F10005B6E74FF480154FF00007FD
:104220004FF000064FF00008ADE7F0BC4FF0000083
:1042300001F1C04101F00041BDE8008111EA0C1F0D
:104240000CEA131500D00CE013EA0C1F00F02580D7
:104250004FF00000F0BC81EA030101F00041BDE82D
:104260000081F0BCBDE8004181EA030100F0D6B94D
:10427000F0BCBDE8004170B500F082F9097EFC3E5B
:1042800000F007B881EA03014FF0000001F000419F
:10429000704781EA030100F0C1B9F0BCBDE80041FC
:1042A0004FF0000021497047FFFDFBF9F7F5F4F2EC
:1042B000F0EEEDEBE9E8E6E4E3E1E0DEDDDBDAD8C1
:1042C000D7D5D4D3D1D0CFCDCCCBCAC8C7C6C5C41F
:1042D000C2C1C0BFBEBDBCBBBAB9B8B7B6B5B4B336
:1042E000B2B1B0AFAEADACABAAA9A8A8A7A6A5A421
:1042F000A3A3A2A1A09F9F9E9D9C9C9B9A999998E5
:104300009797969595949393929191908F8F8E8E87
:104310008D8C8C8B8B8A8989888887878685858414
:1043200084838382828181800000FF070000F87F00
:104330004FEA41034FEA5353A3F58063D3F11E03C1
:10434000C8BFD3F1210C0CDD4FF0004242EAC1227C
:1043500042EA505232FA03FC8CEAE17CACEBE170A9
:104360007047102BC4BF0020704703F5787CBCF168
:10437000FF3F04D06FF0004282EA2100704770B521
:1043800000F0FEF84992248000207047F2E7B0FA6E
:1043900080F310FA03F10AD0C3F11D0303F5806323
:1043A0004FEA41504FEA035202EBD12170474FF0E0
:1043B0000000704751EA030C17D41CF5801F58BF4A
:1043C000BCF5801F00F10680994218BF704708BFF6
:1043D0009042704707D711F5801F58BF13F5801F13
:1043E00019D499427047894270471CF5801F08D53F
:1043F000BCF5801FF7D58B4218BF704708BF8242BB
:1044000070474FF4001C1CEB410F38BF1CEB430FEF
:1044100001D28B42704770B500F0B2F89224490087
:104420004FF000514FF08053FFF71DBEDFF848C139
:1044300070B51CEA111E1EBF1CEA13159EEA0C0F74
:1044400095EA0C0F00F06F8081EA030423EA4C1315
:104450004EEAD47E21EA4C1141F4801143F48013DA
:10446000AE44A1FB024CA0FB0365AEF17F7E361982
:1044700055EB0C05A1FB034C4CF10003A0FB021C07
:1044800016EB0C06654153F10003094218BF46F0D4
:10449000010613F4007F0BD14FEA03314FEA0530D8
:1044A000340341EA155140EA16506FF003020AE066
:1044B0004FEAC3214FEAC520F40241EA555140EAD0
:1044C00056506FF0020202EB2E4201EB025585EAD4
:1044D000CE710AD05FEA440C18BF24F0004450F1BA
:1044E000000041F1000120EAD47040F2FE7C6245F8
:1044F00000D270BDA84214BF4FF080444FF040443A
:10450000002E08BF0024BEF1806FA8BFA1F1C041FA
:10451000BDE8704080F282804FF0000001F1C041A0
:1045200001F0004170479EEA0C0F0CEA131518BF0A
:1045300095EA0C0F06D04FF0000081EA030E0EF052
:10454000004170BD00F01CF88900013E00F007B882
:1045500000F009B84FEA430C5FEA5C5C08D081EADE
:10456000030100F05BB84FEA410C5FEA5C5CF6D1F6
:104570004FF00000014970470000FF070000F87F7E
:104580000EF1020E2EF0030E5EF8046B364205D4D7
:10459000012A43EB030515F5001F12D8012841EB52
:1045A000010C1CF5001F0CD80ED14FEAD17C15F57B
:1045B000001F0CEB4C0C0CF1020C08BF4CEBD37C35
:1045C00004E04FF0080C01E04FEAD37C0CEB4C0503
:1045D00026FA05F606F00706B6F1040C06D20EEB35
:1045E000860CBDE870404CF0010C6047DFE80CF031
:1045F000090B02024FF000414FF00000A1F500212D
:1046000070BD19461046012851EB010418BFD4F5BE
:10461000001484BF002001F0004170BD0808A0F51F
:1046200000114FEA3101704753EA010C17D41CF511
:10463000801F58BFBCF5801F00F106808B4218BF59
:10464000704708BF8242704707D713F5801F58BFD5
:1046500011F5801F19D48B4270479B4270471CF59F
:10466000801F08D5BCF5801FF7D5994218BF704749
:1046700008BF904270474FF4001C1CEB430F38BF3B
:104680001CEB410F01D2994270470FB40CBC03BC24
:10469000FFF7C1BE43004FEAD30C4FEA3C0C434046
:1046A0001FBF40070CF1605113F0FE4F70471CF024
:1046B000006F03D100200CF0004170470CF0004364
:1046C00043EA507010B540EACC0000F028F800BF73
:1046D000000000924FEA0001FFF7A0BF4FF0004139
:1046E0004FF00000A1F5002170470000014800F0E4
:1046F00061B800BF0000C07FB0FA80F310FA03F287
:10470000C3F19D030AD0D90501EB1220530638BF2F
:10471000704700F1010008BF20F0010070470EF162
:10472000020E2EF0030E5EF8044B244204D44FEA2E
:104730004102B2F17F4F11D84FEA4003B3F17F4FEE
:104740000CD80ED14FEAD07CB2F17F4F0CEB4C0C61
:104750000CF1020C08BF4CEBD17C04E04FF0080CCC
:1047600001E04FEAD17C0CEB4C0324FA03F404F093
:104770000704B4F1040C06D20EEB840CBDE8104023
:104780004CF0010C6047DFE80CF0070802024FF024
:104790000040A0F5800010BD0846420018BFD2F1CD
:1047A000807288BF00F0004010BDFF2141EAD05068
:1047B000C00570470CF00F03092B08BF082000F05C
:1047C00051800A2B0BD0082B18BF704708BF1CF074
:1047D000400F0AD04FF000004FF0000170471CF06E
:1047E000400F18BF4FF0004070471CF0100F08D06A
:1047F00020F0704300F07F4242EAD3014FEA437059
:10480000704700F0604021F07F4242EA000201F070
:104810007F4040EA727070474FF0FF0212EAD052B8
:104820001CBF92F0FF038B42C2BFD14200EBC150CC
:104830007047002A0AD0002B0BD0002900F000405E
:10484000A4BF40F0FE4040F40000704700F000407C
:10485000704743024FF00B0C18BF4CF0806C7FF494
:1048600045AF70471CF4801F11D01CF4E02F03D01B
:104870006FEACC31490070474FF04050EFF30082AF
:1048800022F0704242EA000282F3008870474FF043
:1048900000007047010202030405060708090A0B1D
:1048A0000C0D0E0F10100102020304050607080983
:1048B0000A0B0C0D0E0F101000000000000000008D
:1048C00001020304060708090000000001020304B6
:1048D000F048000800000020A001000028010008A6
:1048E000D4490008A0010020580F000084010008EE
:1048F0004123680C236A0A23620E2302021A280845
:10490000232A061A4A0C1B6A040419202A220C19AD
:10491000181A6A1841138D281B08C5041AD1041AE5
:10492000F904132D291B0865081A990417040309B3
:104930000412011932111640830450572602010255
:104940000301031A1A031306FF160901A101151327
:1049500026FF100E75089540090281020903910295
:104960000A25FFB102C0228814207F041B087B04A3
:104970001A8504194F1182105324F4134D2614087C
:10498000C1251B08DD08411AF90C1A8F041A9D0471
:10499000C11A35201A29041A41041A1D04140902E7
:1049A000291301011CC03209ED2A02A515092111A4
:1049B000011401221E1607058103022D05070501BA
:1049C00007291A09562C691A31130A0632022A409D
:0449D000E4000000FF
:04000005080000ED02
:00000001FF
